{
  "_format": "hh-sol-artifact-1",
  "contractName": "ChannelLogic",
  "sourceName": "contracts/ChannelLogic.sol",
  "abi": [
    {
      "anonymous": false,
      "inputs": [
        {
          "indexed": false,
          "internalType": "bool",
          "name": "senderIsA",
          "type": "bool"
        }
      ],
      "name": "ChannelClose",
      "type": "event"
    },
    {
      "anonymous": false,
      "inputs": [
        {
          "indexed": false,
          "internalType": "bool",
          "name": "senderIsA",
          "type": "bool"
        },
        {
          "indexed": false,
          "internalType": "uint256",
          "name": "amount",
          "type": "uint256"
        }
      ],
      "name": "ChannelFund",
      "type": "event"
    },
    {
      "anonymous": false,
      "inputs": [],
      "name": "ChannelOpen",
      "type": "event"
    },
    {
      "anonymous": false,
      "inputs": [
        {
          "indexed": false,
          "internalType": "bool",
          "name": "senderIsA",
          "type": "bool"
        }
      ],
      "name": "ChannelWithdraw",
      "type": "event"
    },
    {
      "anonymous": false,
      "inputs": [
        {
          "indexed": false,
          "internalType": "uint256",
          "name": "newBalance",
          "type": "uint256"
        }
      ],
      "name": "ContractBalanceUpdated",
      "type": "event"
    },
    {
      "anonymous": false,
      "inputs": [],
      "name": "loanHappend",
      "type": "event"
    },
    {
      "inputs": [],
      "name": "channel_count",
      "outputs": [
        {
          "internalType": "int256",
          "name": "",
          "type": "int256"
        }
      ],
      "stateMutability": "view",
      "type": "function"
    },
    {
      "inputs": [
        {
          "internalType": "uint256",
          "name": "",
          "type": "uint256"
        }
      ],
      "name": "channels",
      "outputs": [
        {
          "components": [
            {
              "internalType": "uint256",
              "name": "channel_id",
              "type": "uint256"
            },
            {
              "internalType": "uint256",
              "name": "balance_A",
              "type": "uint256"
            },
            {
              "internalType": "uint256",
              "name": "balance_B",
              "type": "uint256"
            },
            {
              "internalType": "int256",
              "name": "version_num",
              "type": "int256"
            },
            {
              "internalType": "bool",
              "name": "finalized",
              "type": "bool"
            }
          ],
          "internalType": "struct Channel_State",
          "name": "state",
          "type": "tuple"
        },
        {
          "components": [
            {
              "components": [
                {
                  "internalType": "address payable",
                  "name": "addresse",
                  "type": "address"
                }
              ],
              "internalType": "struct Participant",
              "name": "participant_a",
              "type": "tuple"
            },
            {
              "components": [
                {
                  "internalType": "address payable",
                  "name": "addresse",
                  "type": "address"
                }
              ],
              "internalType": "struct Participant",
              "name": "participant_b",
              "type": "tuple"
            }
          ],
          "internalType": "struct Channel_Params",
          "name": "params",
          "type": "tuple"
        },
        {
          "components": [
            {
              "internalType": "bool",
              "name": "funded_a",
              "type": "bool"
            },
            {
              "internalType": "bool",
              "name": "funded_b",
              "type": "bool"
            },
            {
              "internalType": "bool",
              "name": "withdrawed_a",
              "type": "bool"
            },
            {
              "internalType": "bool",
              "name": "withdrawed_b",
              "type": "bool"
            },
            {
              "internalType": "uint256",
              "name": "sum_of_balances",
              "type": "uint256"
            },
            {
              "internalType": "bool",
              "name": "closed",
              "type": "bool"
            }
          ],
          "internalType": "struct Channel_Control",
          "name": "control",
          "type": "tuple"
        }
      ],
      "stateMutability": "view",
      "type": "function"
    },
    {
      "inputs": [
        {
          "components": [
            {
              "internalType": "uint256",
              "name": "channel_id",
              "type": "uint256"
            },
            {
              "internalType": "uint256",
              "name": "balance_A",
              "type": "uint256"
            },
            {
              "internalType": "uint256",
              "name": "balance_B",
              "type": "uint256"
            },
            {
              "internalType": "int256",
              "name": "version_num",
              "type": "int256"
            },
            {
              "internalType": "bool",
              "name": "finalized",
              "type": "bool"
            }
          ],
          "internalType": "struct Channel_State",
          "name": "finalState",
          "type": "tuple"
        }
      ],
      "name": "close",
      "outputs": [],
      "stateMutability": "nonpayable",
      "type": "function"
    },
    {
      "inputs": [
        {
          "internalType": "uint256",
          "name": "amount",
          "type": "uint256"
        }
      ],
      "name": "flashFee",
      "outputs": [
        {
          "internalType": "uint256",
          "name": "",
          "type": "uint256"
        }
      ],
      "stateMutability": "view",
      "type": "function"
    },
    {
      "inputs": [
        {
          "internalType": "contract FlashBorrower",
          "name": "receiver",
          "type": "address"
        },
        {
          "internalType": "uint256",
          "name": "amount",
          "type": "uint256"
        }
      ],
      "name": "flashLoan",
      "outputs": [
        {
          "internalType": "bool",
          "name": "",
          "type": "bool"
        }
      ],
      "stateMutability": "nonpayable",
      "type": "function"
    },
    {
      "inputs": [
        {
          "internalType": "uint256",
          "name": "channel_id",
          "type": "uint256"
        }
      ],
      "name": "fund",
      "outputs": [],
      "stateMutability": "payable",
      "type": "function"
    },
    {
      "inputs": [],
      "name": "maxFlashLoan",
      "outputs": [
        {
          "internalType": "uint256",
          "name": "",
          "type": "uint256"
        }
      ],
      "stateMutability": "view",
      "type": "function"
    },
    {
      "inputs": [
        {
          "components": [
            {
              "components": [
                {
                  "internalType": "address payable",
                  "name": "addresse",
                  "type": "address"
                }
              ],
              "internalType": "struct Participant",
              "name": "participant_a",
              "type": "tuple"
            },
            {
              "components": [
                {
                  "internalType": "address payable",
                  "name": "addresse",
                  "type": "address"
                }
              ],
              "internalType": "struct Participant",
              "name": "participant_b",
              "type": "tuple"
            }
          ],
          "internalType": "struct Channel_Params",
          "name": "params",
          "type": "tuple"
        },
        {
          "components": [
            {
              "internalType": "uint256",
              "name": "channel_id",
              "type": "uint256"
            },
            {
              "internalType": "uint256",
              "name": "balance_A",
              "type": "uint256"
            },
            {
              "internalType": "uint256",
              "name": "balance_B",
              "type": "uint256"
            },
            {
              "internalType": "int256",
              "name": "version_num",
              "type": "int256"
            },
            {
              "internalType": "bool",
              "name": "finalized",
              "type": "bool"
            }
          ],
          "internalType": "struct Channel_State",
          "name": "state",
          "type": "tuple"
        }
      ],
      "name": "open",
      "outputs": [],
      "stateMutability": "nonpayable",
      "type": "function"
    },
    {
      "inputs": [
        {
          "internalType": "uint256",
          "name": "",
          "type": "uint256"
        }
      ],
      "name": "participants",
      "outputs": [
        {
          "internalType": "address payable",
          "name": "addresse",
          "type": "address"
        }
      ],
      "stateMutability": "view",
      "type": "function"
    },
    {
      "inputs": [],
      "name": "payBack",
      "outputs": [
        {
          "internalType": "bool",
          "name": "",
          "type": "bool"
        }
      ],
      "stateMutability": "payable",
      "type": "function"
    },
    {
      "inputs": [
        {
          "internalType": "uint256",
          "name": "channel_id",
          "type": "uint256"
        }
      ],
      "name": "withdraw",
      "outputs": [],
      "stateMutability": "nonpayable",
      "type": "function"
    },
    {
      "stateMutability": "payable",
      "type": "receive"
    }
  ],
  "bytecode": "0x60806040526103e86000556000600255600060035534801561002057600080fd5b5061391d806100306000396000f3fe6080604052600436106100a05760003560e01c8063a7af467a11610064578063a7af467a146101cf578063b72a411a1461020c578063c8d5372114610235578063ca1d209d14610260578063e3026a811461027c578063e5949b5d146102a5576100de565b8063019f64cc146100e3578063242c127c146101015780632e1a7d4d1461012c57806335c1d349146101555780639d9e465c14610192576100de565b366100de577f0f3e6fb3ceb369618319f4cdcb672be913a6ce581123b8488c5ee84a3f3b48f3346040516100d491906120c1565b60405180910390a1005b600080fd5b6100eb6102e4565b6040516100f891906120f7565b60405180910390f35b34801561010d57600080fd5b5061011661034c565b60405161012391906120c1565b60405180910390f35b34801561013857600080fd5b50610153600480360381019061014e919061214d565b61035b565b005b34801561016157600080fd5b5061017c6004803603810190610177919061214d565b610873565b60405161018991906121bb565b60405180910390f35b34801561019e57600080fd5b506101b960048036038101906101b49190612226565b6108bd565b6040516101c691906120f7565b60405180910390f35b3480156101db57600080fd5b506101f660048036038101906101f1919061214d565b610b4f565b60405161020391906120c1565b60405180910390f35b34801561021857600080fd5b50610233600480360381019061022e919061228a565b610b61565b005b34801561024157600080fd5b5061024a61127c565b60405161025791906122d0565b60405180910390f35b61027a6004803603810190610275919061214d565b611282565b005b34801561028857600080fd5b506102a3600480360381019061029e919061230a565b61173e565b005b3480156102b157600080fd5b506102cc60048036038101906102c7919061214d565b611bb1565b6040516102db939291906124b4565b60405180910390f35b6000600654341461032a576040517f08c379a00000000000000000000000000000000000000000000000000000000081526004016103219061256f565b60405180910390fd5b6001600760006101000a81548160ff0219169083151502179055506001905090565b6000610356611da1565b905090565b6000600460008381526020019081526020016000209050818160000160000154146103bb576040517f08c379a00000000000000000000000000000000000000000000000000000000081526004016103b2906125db565b60405180910390fd5b3373ffffffffffffffffffffffffffffffffffffffff168160050160000160000160009054906101000a900473ffffffffffffffffffffffffffffffffffffffff1673ffffffffffffffffffffffffffffffffffffffff16148061047457503373ffffffffffffffffffffffffffffffffffffffff168160050160010160000160009054906101000a900473ffffffffffffffffffffffffffffffffffffffff1673ffffffffffffffffffffffffffffffffffffffff16145b6104b3576040517f08c379a00000000000000000000000000000000000000000000000000000000081526004016104aa9061266d565b60405180910390fd5b8060070160020160009054906101000a900460ff16610507576040517f08c379a00000000000000000000000000000000000000000000000000000000081526004016104fe906126ff565b60405180910390fd5b60008160050160000160000160009054906101000a900473ffffffffffffffffffffffffffffffffffffffff1673ffffffffffffffffffffffffffffffffffffffff163373ffffffffffffffffffffffffffffffffffffffff16149050600081610578578260000160020154610581565b82600001600101545b9050600081116105c6576040517f08c379a00000000000000000000000000000000000000000000000000000000081526004016105bd90612791565b60405180910390fd5b8115610703578260070160000160029054906101000a900460ff1615610621576040517f08c379a000000000000000000000000000000000000000000000000000000000815260040161061890612823565b60405180910390fd5b60018360070160000160026101000a81548160ff021916908315150217905550600083600001600101819055506000803373ffffffffffffffffffffffffffffffffffffffff168360405161067590612874565b60006040518083038185875af1925050503d80600081146106b2576040519150601f19603f3d011682016040523d82523d6000602084013e6106b7565b606091505b5091509150816106fc576040517f08c379a00000000000000000000000000000000000000000000000000000000081526004016106f3906128d5565b60405180910390fd5b5050610836565b8260070160000160039054906101000a900460ff1615610758576040517f08c379a000000000000000000000000000000000000000000000000000000000815260040161074f90612823565b60405180910390fd5b60018360070160000160036101000a81548160ff021916908315150217905550600083600001600201819055506000803373ffffffffffffffffffffffffffffffffffffffff16836040516107ac90612874565b60006040518083038185875af1925050503d80600081146107e9576040519150601f19603f3d011682016040523d82523d6000602084013e6107ee565b606091505b509150915081610833576040517f08c379a000000000000000000000000000000000000000000000000000000000815260040161082a906128d5565b60405180910390fd5b50505b7f5f2e9412d2c47b448c01c5bf2fb6f78f827bef13cf6224ad47c8ed2e47a0147f8260405161086591906120f7565b60405180910390a150505050565b6001818154811061088357600080fd5b906000526020600020016000915090508060000160009054906101000a900473ffffffffffffffffffffffffffffffffffffffff16905081565b6000808211610901576040517f08c379a00000000000000000000000000000000000000000000000000000000081526004016108f890612941565b60405180910390fd5b610909611da1565b82111561094b576040517f08c379a0000000000000000000000000000000000000000000000000000000008152600401610942906129f9565b60405180910390fd5b6000600760006101000a81548160ff0219169083151502179055506000803373ffffffffffffffffffffffffffffffffffffffff168460405161098d90612874565b60006040518083038185875af1925050503d80600081146109ca576040519150601f19603f3d011682016040523d82523d6000602084013e6109cf565b606091505b509150915081610a14576040517f08c379a0000000000000000000000000000000000000000000000000000000008152600401610a0b906128d5565b60405180910390fd5b610a1d84611da9565b84610a289190612a48565b6006819055508473ffffffffffffffffffffffffffffffffffffffff16636d2b653f3386610a5588611da9565b6040518463ffffffff1660e01b8152600401610a7393929190612a8b565b6020604051808303816000875af1158015610a92573d6000803e3d6000fd5b505050506040513d601f19601f82011682018060405250810190610ab69190612aee565b50600760009054906101000a900460ff16610b06576040517f08c379a0000000000000000000000000000000000000000000000000000000008152600401610afd90612b67565b60405180910390fd5b610b17610b1285611da9565b611dcd565b7fd27bb4cd7540ec377599ff260c9cc3354ced40df3d7b901faf87124179f5ee0e60405160405180910390a160019250505092915050565b6000610b5a82611da9565b9050919050565b6000600460008360000135815260200190815260200160002090508160000135816000016000015414610bc9576040517f08c379a0000000000000000000000000000000000000000000000000000000008152600401610bc0906125db565b60405180910390fd5b3373ffffffffffffffffffffffffffffffffffffffff168160050160000160000160009054906101000a900473ffffffffffffffffffffffffffffffffffffffff1673ffffffffffffffffffffffffffffffffffffffff161480610c8257503373ffffffffffffffffffffffffffffffffffffffff168160050160010160000160009054906101000a900473ffffffffffffffffffffffffffffffffffffffff1673ffffffffffffffffffffffffffffffffffffffff16145b610cc1576040517f08c379a0000000000000000000000000000000000000000000000000000000008152600401610cb89061266d565b60405180910390fd5b816080016020810190610cd49190612b9c565b610d13576040517f08c379a0000000000000000000000000000000000000000000000000000000008152600401610d0a90612c15565b60405180910390fd5b8060070160020160009054906101000a900460ff1615610d68576040517f08c379a0000000000000000000000000000000000000000000000000000000008152600401610d5f90612ca7565b60405180910390fd5b806007016001015482604001358360200135610d849190612a48565b14610dc4576040517f08c379a0000000000000000000000000000000000000000000000000000000008152600401610dbb90612d5f565b60405180910390fd5b81816000018181610dd59190612fda565b90505060018160070160020160006101000a81548160ff02191690831515021790555060008160050160000160000160009054906101000a900473ffffffffffffffffffffffffffffffffffffffff1673ffffffffffffffffffffffffffffffffffffffff163373ffffffffffffffffffffffffffffffffffffffff16149050600081610e69578260000160020154610e72565b82600001600101545b905082600701600101548110610ebd576040517f08c379a0000000000000000000000000000000000000000000000000000000008152600401610eb490613080565b60405180910390fd5b6000811115611173578115611021578260070160000160029054906101000a900460ff1615610f21576040517f08c379a0000000000000000000000000000000000000000000000000000000008152600401610f1890612823565b60405180910390fd5b60018360070160000160026101000a81548160ff0219169083151502179055506000836000016001018190555080836007016001016000828254610f6591906130a0565b925050819055506000803373ffffffffffffffffffffffffffffffffffffffff1683604051610f9390612874565b60006040518083038185875af1925050503d8060008114610fd0576040519150601f19603f3d011682016040523d82523d6000602084013e610fd5565b606091505b50915091508161101a576040517f08c379a0000000000000000000000000000000000000000000000000000000008152600401611011906128d5565b60405180910390fd5b5050611172565b8260070160000160039054906101000a900460ff1615611076576040517f08c379a000000000000000000000000000000000000000000000000000000000815260040161106d90612823565b60405180910390fd5b60018360070160000160036101000a81548160ff02191690831515021790555060008360000160020181905550808360070160010160008282546110ba91906130a0565b925050819055506000803373ffffffffffffffffffffffffffffffffffffffff16836040516110e890612874565b60006040518083038185875af1925050503d8060008114611125576040519150601f19603f3d011682016040523d82523d6000602084013e61112a565b606091505b50915091508161116f576040517f08c379a0000000000000000000000000000000000000000000000000000000008152600401611166906128d5565b60405180910390fd5b50505b5b60005b60058054905081101561123e5784600001356005828154811061119c5761119b6130d4565b5b90600052602060002001540361122b57600560016005805490506111c091906130a0565b815481106111d1576111d06130d4565b5b9060005260206000200154600582815481106111f0576111ef6130d4565b5b906000526020600020018190555060058054806112105761120f613103565b5b6001900381819060005260206000200160009055905561123e565b808061123690613132565b915050611176565b507fd7495a5b90f37913fe77ee0135d8181b440a2c259cd301f62f3ab4fc6cd42b9d8260405161126e91906120f7565b60405180910390a150505050565b60025481565b6000600460008381526020019081526020016000209050818160000160000154146112e2576040517f08c379a00000000000000000000000000000000000000000000000000000000081526004016112d9906125db565b60405180910390fd5b3373ffffffffffffffffffffffffffffffffffffffff168160050160000160000160009054906101000a900473ffffffffffffffffffffffffffffffffffffffff1673ffffffffffffffffffffffffffffffffffffffff16148061139b57503373ffffffffffffffffffffffffffffffffffffffff168160050160010160000160009054906101000a900473ffffffffffffffffffffffffffffffffffffffff1673ffffffffffffffffffffffffffffffffffffffff16145b6113da576040517f08c379a00000000000000000000000000000000000000000000000000000000081526004016113d19061266d565b60405180910390fd5b60008160050160000160000160009054906101000a900473ffffffffffffffffffffffffffffffffffffffff1673ffffffffffffffffffffffffffffffffffffffff163373ffffffffffffffffffffffffffffffffffffffff16149050801561149d57600015158260070160000160009054906101000a900460ff16151514611498576040517f08c379a000000000000000000000000000000000000000000000000000000000815260040161148f906131ec565b60405180910390fd5b6114f9565b600015158260070160000160019054906101000a900460ff161515146114f8576040517f08c379a00000000000000000000000000000000000000000000000000000000081526004016114ef906131ec565b60405180910390fd5b5b600015158260000160040160009054906101000a900460ff16151514611554576040517f08c379a000000000000000000000000000000000000000000000000000000000815260040161154b90613258565b60405180910390fd5b60003490506000811161159c576040517f08c379a0000000000000000000000000000000000000000000000000000000008152600401611593906132c4565b60405180910390fd5b81156116355780836000016001018190555060018360070160000160006101000a81548160ff0219169083151502179055506115f760405180606001604052806037815260200161387a603791398460000160010154611e88565b7f15962eab8e35ee59d6efe04904ec7a4c85d72704c15c8fb34e7a1c8fe61d045382826040516116289291906132e4565b60405180910390a16116c4565b80836000016002018190555060018360070160000160016101000a81548160ff02191690831515021790555061168a6040518060600160405280603781526020016138b1603791398460000160020154611e88565b7f15962eab8e35ee59d6efe04904ec7a4c85d72704c15c8fb34e7a1c8fe61d045382826040516116bb9291906132e4565b60405180910390a15b808360070160010160008282546116db9190612a48565b925050819055506117386040518060400160405280601681526020017f5468656972206e65772062616c616e63652069733a20000000000000000000008152503373ffffffffffffffffffffffffffffffffffffffff1631611e88565b50505050565b8060000135600460008360000135815260200190815260200160002060000160000154036117a1576040517f08c379a000000000000000000000000000000000000000000000000000000000815260040161179890613359565b60405180910390fd5b600015156117d5836000018036038101906117bc9190613472565b846020018036038101906117d09190613472565b611f24565b151514611817576040517f08c379a000000000000000000000000000000000000000000000000000000000815260040161180e906134eb565b60405180910390fd5b600081606001351461185e576040517f08c379a000000000000000000000000000000000000000000000000000000000815260040161185590613557565b60405180910390fd5b600015158160800160208101906118759190612b9c565b1515146118b7576040517f08c379a00000000000000000000000000000000000000000000000000000000081526004016118ae90613258565b60405180910390fd5b6118bf611fab565b818036038101906118d09190613618565b8160000181905250828036038101906118e99190613695565b81602001819052506000816040015160000190151590811515815250506000816040015160200190151590811515815250506000816040015160400190151590811515815250506000816040015160600190151590811515815250506000816040015160a00190151590811515815250506000816040015160800181815250506002600081548092919061197c906136c2565b91905055508060046000846000013581526020019081526020016000206000820151816000016000820151816000015560208201518160010155604082015181600201556060820151816003015560808201518160040160006101000a81548160ff021916908315150217905550505060208201518160050160008201518160000160008201518160000160006101000a81548173ffffffffffffffffffffffffffffffffffffffff021916908373ffffffffffffffffffffffffffffffffffffffff160217905550505060208201518160010160008201518160000160006101000a81548173ffffffffffffffffffffffffffffffffffffffff021916908373ffffffffffffffffffffffffffffffffffffffff1602179055505050505060408201518160070160008201518160000160006101000a81548160ff02191690831515021790555060208201518160000160016101000a81548160ff02191690831515021790555060408201518160000160026101000a81548160ff02191690831515021790555060608201518160000160036101000a81548160ff0219169083151502179055506080820151816001015560a08201518160020160006101000a81548160ff02191690831515021790555050509050506005826000013590806001815401808255809150506001900390600052602060002001600090919091909150557f6b3cb66dd3b05a5d6d883902e05aaf7c9b58fdccac36fd8036693fd6bf5c740960405160405180910390a1505050565b6004602052806000526040600020600091509050806000016040518060a0016040529081600082015481526020016001820154815260200160028201548152602001600382015481526020016004820160009054906101000a900460ff1615151515815250509080600501604051806040016040529081600082016040518060200160405290816000820160009054906101000a900473ffffffffffffffffffffffffffffffffffffffff1673ffffffffffffffffffffffffffffffffffffffff1673ffffffffffffffffffffffffffffffffffffffff16815250508152602001600182016040518060200160405290816000820160009054906101000a900473ffffffffffffffffffffffffffffffffffffffff1673ffffffffffffffffffffffffffffffffffffffff1673ffffffffffffffffffffffffffffffffffffffff16815250508152505090806007016040518060c00160405290816000820160009054906101000a900460ff161515151581526020016000820160019054906101000a900460ff161515151581526020016000820160029054906101000a900460ff161515151581526020016000820160039054906101000a900460ff16151515158152602001600182015481526020016002820160009054906101000a900460ff161515151581525050905083565b600047905090565b600061271060005483611dbc919061370a565b611dc6919061377b565b9050919050565b60005b600580549050811015611e845760006004600060058481548110611df757611df66130d4565b5b9060005260206000200154815260200190815260200160002090506064838447611e2191906130a0565b60648460070160010154611e35919061370a565b611e3f919061377b565b611e49919061370a565b611e53919061377b565b816007016001016000828254611e699190612a48565b92505081905550508080611e7c90613132565b915050611dd0565b5050565b611f208282604051602401611e9e92919061381a565b6040516020818303038152906040527fb60e72cc000000000000000000000000000000000000000000000000000000007bffffffffffffffffffffffffffffffffffffffffffffffffffffffff19166020820180517bffffffffffffffffffffffffffffffffffffffffffffffffffffffff8381831617835250505050611f65565b5050565b6000816000015173ffffffffffffffffffffffffffffffffffffffff16836000015173ffffffffffffffffffffffffffffffffffffffff1614905092915050565b611f7c81611f74611f7f611fa0565b63ffffffff16565b50565b60006a636f6e736f6c652e6c6f679050600080835160208501845afa505050565b611fde819050919050565b6040518060600160405280611fbe611fe8565b8152602001611fcb612019565b8152602001611fd861203f565b81525090565b611fe661384a565b565b6040518060a00160405280600081526020016000815260200160008152602001600081526020016000151581525090565b604051806040016040528061202c61207f565b815260200161203961207f565b81525090565b6040518060c00160405280600015158152602001600015158152602001600015158152602001600015158152602001600081526020016000151581525090565b6040518060200160405280600073ffffffffffffffffffffffffffffffffffffffff1681525090565b6000819050919050565b6120bb816120a8565b82525050565b60006020820190506120d660008301846120b2565b92915050565b60008115159050919050565b6120f1816120dc565b82525050565b600060208201905061210c60008301846120e8565b92915050565b6000604051905090565b600080fd5b61212a816120a8565b811461213557600080fd5b50565b60008135905061214781612121565b92915050565b6000602082840312156121635761216261211c565b5b600061217184828501612138565b91505092915050565b600073ffffffffffffffffffffffffffffffffffffffff82169050919050565b60006121a58261217a565b9050919050565b6121b58161219a565b82525050565b60006020820190506121d060008301846121ac565b92915050565b60006121e18261217a565b9050919050565b60006121f3826121d6565b9050919050565b612203816121e8565b811461220e57600080fd5b50565b600081359050612220816121fa565b92915050565b6000806040838503121561223d5761223c61211c565b5b600061224b85828601612211565b925050602061225c85828601612138565b9150509250929050565b600080fd5b600060a0828403121561228157612280612266565b5b81905092915050565b600060a082840312156122a05761229f61211c565b5b60006122ae8482850161226b565b91505092915050565b6000819050919050565b6122ca816122b7565b82525050565b60006020820190506122e560008301846122c1565b92915050565b60006040828403121561230157612300612266565b5b81905092915050565b60008060e083850312156123215761232061211c565b5b600061232f858286016122eb565b92505060406123408582860161226b565b9150509250929050565b612353816120a8565b82525050565b612362816122b7565b82525050565b612371816120dc565b82525050565b60a08201600082015161238d600085018261234a565b5060208201516123a0602085018261234a565b5060408201516123b3604085018261234a565b5060608201516123c66060850182612359565b5060808201516123d96080850182612368565b50505050565b6123e88161219a565b82525050565b60208201600082015161240460008501826123df565b50505050565b60408201600082015161242060008501826123ee565b50602082015161243360208501826123ee565b50505050565b60c08201600082015161244f6000850182612368565b5060208201516124626020850182612368565b5060408201516124756040850182612368565b5060608201516124886060850182612368565b50608082015161249b608085018261234a565b5060a08201516124ae60a0850182612368565b50505050565b60006101a0820190506124ca6000830186612377565b6124d760a083018561240a565b6124e460e0830184612439565b949350505050565b600082825260208201905092915050565b7f446964206e6f742073656e642073756666696369656e742066756e647320746f60008201527f20706179206261636b2074686520666c617368206c6f616e0000000000000000602082015250565b60006125596038836124ec565b9150612564826124fd565b604082019050919050565b600060208201905081810360008301526125888161254c565b9050919050565b7f4368616e6e656c20646f6573206e6f7420657869737400000000000000000000600082015250565b60006125c56016836124ec565b91506125d08261258f565b602082019050919050565b600060208201905081810360008301526125f4816125b8565b9050919050565b7f53656e646572206973206e6f742061207061727469636970616e74206f66207460008201527f686520676976656e206368616e6e656c00000000000000000000000000000000602082015250565b60006126576030836124ec565b9150612662826125fb565b604082019050919050565b600060208201905081810360008301526126868161264a565b9050919050565b7f4368616e6e656c20686173206e6f74206265656e20636c6f736564207965742c60008201527f2075736520636c6f736520696e73746561640000000000000000000000000000602082015250565b60006126e96032836124ec565b91506126f48261268d565b604082019050919050565b60006020820190508181036000830152612718816126dc565b9050919050565b7f5468657265206973206e6f2062616c616e636520666f7220796f7520696e207460008201527f686973206368616e6e656c20746f207769746864726177000000000000000000602082015250565b600061277b6037836124ec565b91506127868261271f565b604082019050919050565b600060208201905081810360008301526127aa8161276e565b9050919050565b7f53656e6465722068617320616c72656164792077697468647261776e2074686560008201527f69722062616c616e636500000000000000000000000000000000000000000000602082015250565b600061280d602a836124ec565b9150612818826127b1565b604082019050919050565b6000602082019050818103600083015261283c81612800565b9050919050565b600081905092915050565b50565b600061285e600083612843565b91506128698261284e565b600082019050919050565b600061287f82612851565b9150819050919050565b7f5472616e73666572206661696c65640000000000000000000000000000000000600082015250565b60006128bf600f836124ec565b91506128ca82612889565b602082019050919050565b600060208201905081810360008301526128ee816128b2565b9050919050565b7f416d6f756e742068617320746f2062652067726561746572207468616e203000600082015250565b600061292b601f836124ec565b9150612936826128f5565b602082019050919050565b6000602082019050818103600083015261295a8161291e565b9050919050565b7f416d6f756e7420657863656564732074686520666c617368206c6f616e206c6960008201527f6d69742c2074727920746f2063686f6f7365206120736d616c6c657220616d6f60208201527f756e740000000000000000000000000000000000000000000000000000000000604082015250565b60006129e36043836124ec565b91506129ee82612961565b606082019050919050565b60006020820190508181036000830152612a12816129d6565b9050919050565b7f4e487b7100000000000000000000000000000000000000000000000000000000600052601160045260246000fd5b6000612a53826120a8565b9150612a5e836120a8565b9250828201905080821115612a7657612a75612a19565b5b92915050565b612a85816121d6565b82525050565b6000606082019050612aa06000830186612a7c565b612aad60208301856120b2565b612aba60408301846120b2565b949350505050565b612acb816120dc565b8114612ad657600080fd5b50565b600081519050612ae881612ac2565b92915050565b600060208284031215612b0457612b0361211c565b5b6000612b1284828501612ad9565b91505092915050565b7f5061796261636b20646964206e6f742068617070656e206f72206661696c6564600082015250565b6000612b516020836124ec565b9150612b5c82612b1b565b602082019050919050565b60006020820190508181036000830152612b8081612b44565b9050919050565b600081359050612b9681612ac2565b92915050565b600060208284031215612bb257612bb161211c565b5b6000612bc084828501612b87565b91505092915050565b7f4368616e6e656c206973206e6f74207965742066696e616c6973656400000000600082015250565b6000612bff601c836124ec565b9150612c0a82612bc9565b602082019050919050565b60006020820190508181036000830152612c2e81612bf2565b9050919050565b7f4368616e6e656c2068617320616c7265616479206265656e20636c6f7365642c60008201527f2075736520776974686472617720696e73746561640000000000000000000000602082015250565b6000612c916035836124ec565b9150612c9c82612c35565b604082019050919050565b60006020820190508181036000830152612cc081612c84565b9050919050565b7f5468652073756d206f66207468652062616c616e63657320646f6573206e6f7460008201527f206d61746368207468652073756d206f66207468652062616c616e636573206960208201527f6e2074686520636f6e74726f6c20737472756374000000000000000000000000604082015250565b6000612d496054836124ec565b9150612d5482612cc7565b606082019050919050565b60006020820190508181036000830152612d7881612d3c565b9050919050565b60008135612d8c81612121565b80915050919050565b60008160001b9050919050565b60007fffffffffffffffffffffffffffffffffffffffffffffffffffffffffffffffff612dce84612d95565b9350801983169250808416831791505092915050565b6000819050919050565b6000612e09612e04612dff846120a8565b612de4565b6120a8565b9050919050565b6000819050919050565b612e2382612dee565b612e36612e2f82612e10565b8354612da2565b8255505050565b612e46816122b7565b8114612e5157600080fd5b50565b60008135612e6181612e3d565b80915050919050565b6000612e85612e80612e7b846122b7565b612de4565b6122b7565b9050919050565b6000819050919050565b612e9f82612e6a565b612eb2612eab82612e8c565b8354612da2565b8255505050565b60008135612ec681612ac2565b80915050919050565b600060ff612edc84612d95565b9350801983169250808416831791505092915050565b6000612efd826120dc565b9050919050565b6000819050919050565b612f1782612ef2565b612f2a612f2382612f04565b8354612ecf565b8255505050565b600081016000830180612f4381612d7f565b9050612f4f8184612e1a565b505050600181016020830180612f6481612d7f565b9050612f708184612e1a565b505050600281016040830180612f8581612d7f565b9050612f918184612e1a565b505050600381016060830180612fa681612e54565b9050612fb28184612e96565b505050600481016080830180612fc781612eb9565b9050612fd38184612f0e565b5050505050565b612fe48282612f31565b5050565b7f54686520616d6f756e7420746f206265207472616e73666572726564206d757360008201527f74206265206c657373207468616e207468652073756d206f662074686520626160208201527f6c616e6365730000000000000000000000000000000000000000000000000000604082015250565b600061306a6046836124ec565b915061307582612fe8565b606082019050919050565b600060208201905081810360008301526130998161305d565b9050919050565b60006130ab826120a8565b91506130b6836120a8565b92508282039050818111156130ce576130cd612a19565b5b92915050565b7f4e487b7100000000000000000000000000000000000000000000000000000000600052603260045260246000fd5b7f4e487b7100000000000000000000000000000000000000000000000000000000600052603160045260246000fd5b600061313d826120a8565b91507fffffffffffffffffffffffffffffffffffffffffffffffffffffffffffffffff820361316f5761316e612a19565b5b600182019050919050565b7f53656e6465722068617320616c72656164792066756e6465642074686973206360008201527f68616e6e656c0000000000000000000000000000000000000000000000000000602082015250565b60006131d66026836124ec565b91506131e18261317a565b604082019050919050565b60006020820190508181036000830152613205816131c9565b9050919050565b7f4368616e6e656c2069732066696e616c697a6564000000000000000000000000600082015250565b60006132426014836124ec565b915061324d8261320c565b602082019050919050565b6000602082019050818103600083015261327181613235565b9050919050565b7f43616e6e6f742066756e642061206368616e6e656c2077697468203020457468600082015250565b60006132ae6020836124ec565b91506132b982613278565b602082019050919050565b600060208201905081810360008301526132dd816132a1565b9050919050565b60006040820190506132f960008301856120e8565b61330660208301846120b2565b9392505050565b7f4368616e6e656c20616c72656164792065786973747300000000000000000000600082015250565b60006133436016836124ec565b915061334e8261330d565b602082019050919050565b6000602082019050818103600083015261337281613336565b9050919050565b600080fd5b6000601f19601f8301169050919050565b7f4e487b7100000000000000000000000000000000000000000000000000000000600052604160045260246000fd5b6133c78261337e565b810181811067ffffffffffffffff821117156133e6576133e561338f565b5b80604052505050565b60006133f9612112565b905061340582826133be565b919050565b6134138161219a565b811461341e57600080fd5b50565b6000813590506134308161340a565b92915050565b60006020828403121561344c5761344b613379565b5b61345660206133ef565b9050600061346684828501613421565b60008301525092915050565b6000602082840312156134885761348761211c565b5b600061349684828501613436565b91505092915050565b7f5061727469636970616e747320617265207468652073616d6500000000000000600082015250565b60006134d56019836124ec565b91506134e08261349f565b602082019050919050565b60006020820190508181036000830152613504816134c8565b9050919050565b7f56657273696f6e206e756d626572206973206e6f742030000000000000000000600082015250565b60006135416017836124ec565b915061354c8261350b565b602082019050919050565b6000602082019050818103600083015261357081613534565b9050919050565b60008135905061358681612e3d565b92915050565b600060a082840312156135a2576135a1613379565b5b6135ac60a06133ef565b905060006135bc84828501612138565b60008301525060206135d084828501612138565b60208301525060406135e484828501612138565b60408301525060606135f884828501613577565b606083015250608061360c84828501612b87565b60808301525092915050565b600060a0828403121561362e5761362d61211c565b5b600061363c8482850161358c565b91505092915050565b60006040828403121561365b5761365a613379565b5b61366560406133ef565b9050600061367584828501613436565b600083015250602061368984828501613436565b60208301525092915050565b6000604082840312156136ab576136aa61211c565b5b60006136b984828501613645565b91505092915050565b60006136cd826122b7565b91507f7fffffffffffffffffffffffffffffffffffffffffffffffffffffffffffffff82036136ff576136fe612a19565b5b600182019050919050565b6000613715826120a8565b9150613720836120a8565b925082820261372e816120a8565b9150828204841483151761374557613744612a19565b5b5092915050565b7f4e487b7100000000000000000000000000000000000000000000000000000000600052601260045260246000fd5b6000613786826120a8565b9150613791836120a8565b9250826137a1576137a061374c565b5b828204905092915050565b600081519050919050565b60005b838110156137d55780820151818401526020810190506137ba565b60008484015250505050565b60006137ec826137ac565b6137f681856124ec565b93506138068185602086016137b7565b61380f8161337e565b840191505092915050565b6000604082019050818103600083015261383481856137e1565b905061384360208301846120b2565b9392505050565b7f4e487b7100000000000000000000000000000000000000000000000000000000600052605160045260246000fdfe5061727469636970616e74204120686173207375636365737366756c6c792066756e64656420746865206368616e6e656c2077697468205061727469636970616e74204220686173207375636365737366756c6c792066756e64656420746865206368616e6e656c207769746820a264697066735822122071daaa79a7ce3626be2f40732aaad984968647670b7180b22e581081c3805dcd64736f6c63430008130033",
  "linkReferences": {},
  "deployedLinkReferences": {}
}