{
  "_format": "hh-sol-artifact-1",
  "contractName": "ExampleBorrower",
  "sourceName": "contracts/ExampleBorrower.sol",
  "abi": [
    {
      "stateMutability": "payable",
      "type": "fallback"
    },
    {
      "inputs": [],
      "name": "channelLogic",
      "outputs": [
        {
          "internalType": "contract ChannelLogic",
          "name": "",
          "type": "address"
        }
      ],
      "stateMutability": "view",
      "type": "function"
    },
    {
      "inputs": [],
      "name": "cryptoMarket",
      "outputs": [
        {
          "internalType": "contract CryptoMarket",
          "name": "",
          "type": "address"
        }
      ],
      "stateMutability": "view",
      "type": "function"
    },
    {
      "inputs": [
        {
          "internalType": "address",
          "name": "initiator",
          "type": "address"
        },
        {
          "internalType": "uint256",
          "name": "amount",
          "type": "uint256"
        },
        {
          "internalType": "uint256",
          "name": "fee",
          "type": "uint256"
        }
      ],
      "name": "onFlashLoan",
      "outputs": [
        {
          "internalType": "bool",
          "name": "",
          "type": "bool"
        }
      ],
      "stateMutability": "nonpayable",
      "type": "function"
    },
    {
      "inputs": [],
      "name": "receiver",
      "outputs": [],
      "stateMutability": "payable",
      "type": "function"
    },
    {
      "inputs": [
        {
          "internalType": "uint256",
          "name": "amount",
          "type": "uint256"
        }
      ],
      "name": "startFlashLoan",
      "outputs": [],
      "stateMutability": "nonpayable",
      "type": "function"
    },
    {
      "stateMutability": "payable",
      "type": "receive"
    }
  ],
  "bytecode": "0x6080604052735fbdb2315678afecb367f032d93f642f64180aa36000806101000a81548173ffffffffffffffffffffffffffffffffffffffff021916908373ffffffffffffffffffffffffffffffffffffffff160217905550739fe46736679d2d9a65f0992f2272de9f3c7fa6e0600160006101000a81548173ffffffffffffffffffffffffffffffffffffffff021916908373ffffffffffffffffffffffffffffffffffffffff1602179055503480156100b957600080fd5b50610ce3806100c96000396000f3fe60806040526004361061004e5760003560e01c806332f7dec4146100b85780635a9a30be146100e35780636d2b653f1461010e57806394cf612a1461014b578063f7260d3e1461017457610094565b36610094576100926040518060400160405280601b81526020017f4578616d706c65426f72726f77657220526563656976656420257300000000008152503461017e565b005b6100b6604051806060016040528060258152602001610c89602591393461017e565b005b3480156100c457600080fd5b506100cd61021a565b6040516100da9190610837565b60405180910390f35b3480156100ef57600080fd5b506100f861023e565b6040516101059190610873565b60405180910390f35b34801561011a57600080fd5b5061013560048036038101906101309190610907565b610264565b6040516101429190610975565b60405180910390f35b34801561015757600080fd5b50610172600480360381019061016d9190610990565b610470565b005b61017c610556565b005b6102168282604051602401610194929190610a5c565b6040516020818303038152906040527fb60e72cc000000000000000000000000000000000000000000000000000000007bffffffffffffffffffffffffffffffffffffffffffffffffffffffff19166020820180517bffffffffffffffffffffffffffffffffffffffffffffffffffffffff8381831617835250505050610597565b5050565b60008054906101000a900473ffffffffffffffffffffffffffffffffffffffff1681565b600160009054906101000a900473ffffffffffffffffffffffffffffffffffffffff1681565b60006102a56040518060400160405280601b81526020017f466c617368206c6f616e20696e697469617465642062793a2025730000000000815250856105b1565b6102e46040518060400160405280600a81526020017f416d6f756e743a202573000000000000000000000000000000000000000000008152508461017e565b6103236040518060400160405280600781526020017f4665653a202573000000000000000000000000000000000000000000000000008152508361017e565b600160009054906101000a900473ffffffffffffffffffffffffffffffffffffffff1673ffffffffffffffffffffffffffffffffffffffff16638b27e951846040518263ffffffff1660e01b81526004016000604051808303818588803b15801561038d57600080fd5b505af11580156103a1573d6000803e3d6000fd5b505050505060008054906101000a900473ffffffffffffffffffffffffffffffffffffffff1673ffffffffffffffffffffffffffffffffffffffff1663019f64cc83856103ee9190610abb565b6040518263ffffffff1660e01b815260040160206040518083038185885af115801561041e573d6000803e3d6000fd5b50505050506040513d601f19601f820116820180604052508101906104439190610b1b565b50610465604051806060016040528060248152602001610c656024913961064d565b600190509392505050565b60008060009054906101000a900473ffffffffffffffffffffffffffffffffffffffff1673ffffffffffffffffffffffffffffffffffffffff16639d9e465c30846040518363ffffffff1660e01b81526004016104ce929190610b7b565b6020604051808303816000875af11580156104ed573d6000803e3d6000fd5b505050506040513d601f19601f820116820180604052508101906105119190610b1b565b90506105526040518060400160405280601581526020017f466c617368206c6f616e20726573756c743a2025730000000000000000000000815250826106e6565b5050565b6105956040518060400160405280600b81526020017f52656365697665722025730000000000000000000000000000000000000000008152503461017e565b565b6105ae816105a66107826107a3565b63ffffffff16565b50565b61064982826040516024016105c7929190610bb3565b6040516020818303038152906040527f319af333000000000000000000000000000000000000000000000000000000007bffffffffffffffffffffffffffffffffffffffffffffffffffffffff19166020820180517bffffffffffffffffffffffffffffffffffffffffffffffffffffffff8381831617835250505050610597565b5050565b6106e3816040516024016106619190610be3565b6040516020818303038152906040527f41304fac000000000000000000000000000000000000000000000000000000007bffffffffffffffffffffffffffffffffffffffffffffffffffffffff19166020820180517bffffffffffffffffffffffffffffffffffffffffffffffffffffffff8381831617835250505050610597565b50565b61077e82826040516024016106fc929190610c05565b6040516020818303038152906040527fc3b55635000000000000000000000000000000000000000000000000000000007bffffffffffffffffffffffffffffffffffffffffffffffffffffffff19166020820180517bffffffffffffffffffffffffffffffffffffffffffffffffffffffff8381831617835250505050610597565b5050565b60006a636f6e736f6c652e6c6f679050600080835160208501845afa505050565b6107ae819050919050565b6107b6610c35565b565b600073ffffffffffffffffffffffffffffffffffffffff82169050919050565b6000819050919050565b60006107fd6107f86107f3846107b8565b6107d8565b6107b8565b9050919050565b600061080f826107e2565b9050919050565b600061082182610804565b9050919050565b61083181610816565b82525050565b600060208201905061084c6000830184610828565b92915050565b600061085d82610804565b9050919050565b61086d81610852565b82525050565b60006020820190506108886000830184610864565b92915050565b600080fd5b600061089e826107b8565b9050919050565b6108ae81610893565b81146108b957600080fd5b50565b6000813590506108cb816108a5565b92915050565b6000819050919050565b6108e4816108d1565b81146108ef57600080fd5b50565b600081359050610901816108db565b92915050565b6000806000606084860312156109205761091f61088e565b5b600061092e868287016108bc565b935050602061093f868287016108f2565b9250506040610950868287016108f2565b9150509250925092565b60008115159050919050565b61096f8161095a565b82525050565b600060208201905061098a6000830184610966565b92915050565b6000602082840312156109a6576109a561088e565b5b60006109b4848285016108f2565b91505092915050565b600081519050919050565b600082825260208201905092915050565b60005b838110156109f75780820151818401526020810190506109dc565b60008484015250505050565b6000601f19601f8301169050919050565b6000610a1f826109bd565b610a2981856109c8565b9350610a398185602086016109d9565b610a4281610a03565b840191505092915050565b610a56816108d1565b82525050565b60006040820190508181036000830152610a768185610a14565b9050610a856020830184610a4d565b9392505050565b7f4e487b7100000000000000000000000000000000000000000000000000000000600052601160045260246000fd5b6000610ac6826108d1565b9150610ad1836108d1565b9250828201905080821115610ae957610ae8610a8c565b5b92915050565b610af88161095a565b8114610b0357600080fd5b50565b600081519050610b1581610aef565b92915050565b600060208284031215610b3157610b3061088e565b5b6000610b3f84828501610b06565b91505092915050565b6000610b53826107e2565b9050919050565b6000610b6582610b48565b9050919050565b610b7581610b5a565b82525050565b6000604082019050610b906000830185610b6c565b610b9d6020830184610a4d565b9392505050565b610bad81610893565b82525050565b60006040820190508181036000830152610bcd8185610a14565b9050610bdc6020830184610ba4565b9392505050565b60006020820190508181036000830152610bfd8184610a14565b905092915050565b60006040820190508181036000830152610c1f8185610a14565b9050610c2e6020830184610966565b9392505050565b7f4e487b7100000000000000000000000000000000000000000000000000000000600052605160045260246000fdfe4578616d706c65426f72726f7765722070616964206261636b20666c617368206c6f616e4578616d706c65426f72726f7765722046616c6c6261636b2c205265636569766564202573a2646970667358221220a8503dc7ccf9cab9eda798c1a02272a854f0063b61ece3c23a56549456af0f6564736f6c63430008130033",
  "linkReferences": {},
  "deployedLinkReferences": {}
}